:10000000001000100D0100008501000085010000B6
:1000100000000000000000000000000000000000E0
:10002000000000000000000000000000850100004A
:100030000000000000000000850100008D010000AC
:100040008501000085010000850100008501000098
:100050008501000085010000850100008501000088
:100060008501000085010000850100008501000078
:100070008501000085010000850100008501000068
:100080008501000085010000850100008501000058
:100090008501000085010000850100008501000048
:1000A0008501000085010000850100008501000038
:1000B0008501000085010000850100008501000028
:1000C00080B500AF0B4B00221A600B4B23221A6045
:1000D0000A4B0A4A126880218A431A60084B01229F
:1000E0001A60084B03221A60074B01221A60BD46B2
:1000F00080BDC046408004400880044038820440EF
:1001000044800440708004407480044080B584B012
:1001100000AF174BFB60174BBB60174A154BD31A48
:100120007B6007E0BB685A1CBA60FA68511CF96032
:1001300012781A707B685A1E7A60002BF2D10F4B2E
:10014000BB600F4A0D4BD31A7B6004E0BB685A1C9E
:10015000BA6000221A707B685A1E7A60002BF5D1B3
:10016000FFF7AEFF00F050F9BD4604B080BDC046B9
:100170003006000000000010040000100400001011
:100180001400001080B500AFFEE7C04680B500AF98
:10019000234B1B68022B13D002DC012B05D030E06F
:1001A000032B18D0042B21D02BE01E4B0E221A60FB
:1001B0001C4A1C4B19681C4B1B680B43136020E046
:1001C000184B16221A60174A164B1968164B5B68B3
:1001D0000B43136015E0134B1A221A60114A114B9E
:1001E0001968114B9B680B4313600AE00D4B1C22EE
:1001F0001A600C4A0B4B19680B4BDB680B431360FE
:10020000C046074B1B685A1C054B1A60044B1B6801
:10021000042B02DD024B01221A60BD4680BDC046A0
:1002200000000010FC3F00500400001080B500AF3B
:10023000074B074A126807210A431A60054B064A12
:100240001A60064B05221A6062B6BD4680BDC046E4
:1002500010E000E014E000E07FBB000018E000E0E8
:1002600080B582B000AF7860C0467B685A1E7A6065
:10027000002BFAD1BD4602B080BDC04680B582B029
:1002800000AF78607B68181C0A2100F0BBF90B1CDA
:100290001A1C224B5200D35A1AB2214B1A607B68A7
:1002A000181C0A2100F0C8F8031C7B607B68181C2E
:1002B0000A2100F0A7F90B1C1A1C184B5200D35A44
:1002C0001AB2174B5A607B68181C0A2100F0B4F868
:1002D000031C7B607B68181C0A2100F093F90B1C3F
:1002E0001A1C0E4B5200D35A1AB20D4B9A607B68FF
:1002F000181C0A2100F0A0F8031C7B607B68181C06
:100300000A2100F07FF90B1C1A1C044B5200D35A2F
:100310001AB2034BDA60BD4602B080BD1C06000075
:100320000400001080B500AF1E4B0E221A601D4A5B
:100330001C4B19681C4B1B680B431360FA239B0072
:10034000181CFFF78DFF174B16221A60154A154B24
:100350001968154B5B680B431360FA239B00181C4C
:10036000FFF77EFF0F4B1A221A600E4A0D4B1968D9
:100370000D4B9B680B431360FA239B00181CFFF77F
:100380006FFF084B1C221A60064A064B1968064B81
:10039000DB680B431360FA239B00181CFFF760FF18
:1003A000BD4680BDFC3F00500400001080B500AF8A
:1003B0000D4B0D4A12680D490A431A600C4B0D4A49
:1003C0001A600D4B1E221A600C4B0C4A12688021D9
:1003D00049000A431A600A4B01221A60094B0122A4
:1003E0001A60BD4680BDC0468080044040000100C8
:1003F00000800050FE0F0000FC3F005034400440DD
:10040000684004407440044080B582B000AFFFF7FC
:100410000DFFFFF7CBFF00237B607B685A1C7A60DF
:10042000181CFFF72BFF7B68024A934201DD002373
:100430007B60F2E70F27000003460B437FD40022C6
:1004400043088B4274D303098B425FD3030A8B4268
:1004500044D3030B8B4228D3030C8B420DD3FF22D2
:10046000090212BA030C8B4202D31212090265D0A0
:10047000030B8B4219D300E0090AC30B8B4201D353
:10048000CB03C01A5241830B8B4201D38B03C01A9A
:100490005241430B8B4201D34B03C01A5241030B11
:1004A0008B4201D30B03C01A5241C30A8B4201D3C2
:1004B000CB02C01A5241830A8B4201D38B02C01A6D
:1004C0005241430A8B4201D34B02C01A5241030AE4
:1004D0008B4201D30B02C01A5241CDD2C3098B42C9
:1004E00001D3CB01C01A524183098B4201D38B0146
:1004F000C01A524143098B4201D34B01C01A5241E9
:1005000003098B4201D30B01C01A5241C3088B422D
:1005100001D3CB00C01A524183088B4201D38B0018
:10052000C01A524143088B4201D34B00C01A5241BA
:10053000411A00D201465241104670475DE0CA0F91
:1005400000D04942031000D34042534000229C4651
:1005500003098B422DD3030A8B4212D3FC2289015B
:1005600012BA030A8B420CD3890192118B4208D331
:10057000890192118B4204D389013AD0921100E093
:100580008909C3098B4201D3CB01C01A52418309A7
:100590008B4201D38B01C01A524143098B4201D3D4
:1005A0004B01C01A524103098B4201D30B01C01AFF
:1005B0005241C3088B4201D3CB00C01A5241830879
:1005C0008B4201D38B00C01A5241D9D243088B42CF
:1005D00001D34B00C01A5241411A00D20146634672
:1005E00052415B10104601D34042002B00D54942D6
:1005F000704763465B1000D3404201B5002000F015
:100600000BF802BD0029F8D003B5FFF715FF0EBCAB
:0C0610004243891A1847C0467047C04694
:10061C00E007C000600BE009C00CA00DA00FE000CB
:04062C00E00FE00DEE
:0406300001000000C5
:00000001FF
