:1000000000040010110100000000000000000000CA
:1000100000000000000000000000000000000000E0
:1000200000000000000000000000000000000000D0
:1000300000000000000000000000000000000000C0
:1000400000000000000000000000000000000000B0
:1000500000000000000000000000000000000000A0
:100060000000000000000000000000000000000090
:100070000000000000000000000000000000000080
:100080000000000000000000000000000000000070
:100090000000000000000000000000000000000060
:1000A0000000000000000000000000000000000050
:1000B0000000000000000000000000000000000040
:1000C0000000000080B582B000AF0D4B41225242CB
:1000D0001A600C4B0B4A126804210A431A600A4B3F
:1000E000094A126804210A431A60084B7B6002E047
:1000F0007B68013B7B607B68002BF9DCEFE7C04647
:10010000C0C10040002000A0002300A080A903007F
:04011000D8E7C04626
:0400000300000111E7
:00000001FF
