:10000000001000100D0100008501000085010000B6
:1000100000000000000000000000000000000000E0
:10002000000000000000000000000000850100004A
:1000300000000000000000008501000085010000B4
:100040008501000085010000850100008501000098
:100050008501000085010000850100008501000088
:100060008501000085010000850100008501000078
:100070008501000085010000850100008501000068
:100080008501000085010000850100008501000058
:100090008501000085010000850100008501000048
:1000A0008501000085010000850100008501000038
:1000B0008501000085010000850100008501000028
:1000C00080B500AF0B4B00221A600B4B23221A6045
:1000D0000A4B0A4A126880218A431A60084B01229F
:1000E0001A60084B03221A60074B01221A60BD46B2
:1000F00080BDC046408004400880044038820440EF
:1001000044800440708004407480044080B584B012
:1001100000AF174BFB60174BBB60174A154BD31A48
:100120007B6007E0BB685A1CBA60FA68511CF96032
:1001300012781A707B685A1E7A60002BF2D10F4B2E
:10014000BB600F4A0D4BD31A7B6004E0BB685A1C9E
:10015000BA6000221A707B685A1E7A60002BF5D1B3
:10016000FFF7AEFF00F0BCF8BD4604B080BDC0464E
:10017000F804000000000010000000100000001053
:100180000000001080B500AFFEE7C04680B500AFAC
:100190000D4B0D4A12680D490A431A600C4B0C4A6C
:1001A0001268802149000A431A600A4B01221A6032
:1001B000094B01221A60094B084A126803210A43BD
:1001C0001A60BD4680BDC0468080044040000100EA
:1001D0003440044068400440744004407C40044083
:1001E00080B500AF0E4B0E4A12688021C9000A4349
:1001F0001A600C4BC02252001A600B4BC0225200F6
:100200001A600A4B8022D2001A60094B00221A6041
:10021000084B01221A60084B01221A60BD4680BDBE
:1002200080800440248001401880014014800140F7
:1002300008800140748001400480014080B584B092
:1002400000AF78600C4B00221A600C48796800F00F
:1002500061F8031CFB600A4BFA681A60094BFA68E4
:1002600052101A60084B00221A60034B01221A60D8
:10027000BD4604B080BDC04604800140006CDC0275
:1002800024800140188001400880014080B584B07E
:1002900000AF7860094B1B68FB60FB687A685343CA
:1002A000181C642100F036F8031C5B10FB60044B43
:1002B000FA681A60BD4604B080BDC0462480014083
:1002C0001880014080B582B000AF7860C0467B687E
:1002D0005A1E7A60002BFAD1BD4602B080BDC046DE
:1002E00080B582B000AF7D237B6000233B60FFF7C9
:1002F0004DFFFFF775FF7B68181CFFF79FFF642019
:10030000FFF7C4FF024B181CFFF7DCFFFAE7C046FB
:100310001027000003460B437FD4002243088B4282
:1003200074D303098B425FD3030A8B4244D3030B7C
:100330008B4228D3030C8B420DD3FF22090212BA41
:10034000030C8B4202D31212090265D0030B8B42BD
:1003500019D300E0090AC30B8B4201D3CB03C01AA7
:100360005241830B8B4201D38B03C01A5241430B82
:100370008B4201D34B03C01A5241030B8B4201D372
:100380000B03C01A5241C30A8B4201D3CB02C01ADD
:100390005241830A8B4201D38B02C01A5241430A55
:1003A0008B4201D34B02C01A5241030A8B4201D344
:1003B0000B02C01A5241CDD2C3098B4201D3CB01EB
:1003C000C01A524183098B4201D38B01C01A52419A
:1003D00043098B4201D34B01C01A524103098B429E
:1003E00001D30B01C01A5241C3088B4201D3CB0089
:1003F000C01A524183088B4201D38B00C01A52416C
:1004000043088B4201D34B00C01A5241411A00D21B
:1004100001465241104670475DE0CA0F00D0494284
:10042000031000D34042534000229C4603098B42F4
:100430002DD3030A8B4212D3FC22890112BA030A7C
:100440008B420CD3890192118B4208D389019211FE
:100450008B4204D389013AD0921100E08909C30983
:100460008B4201D3CB01C01A524183098B4201D385
:100470008B01C01A524143098B4201D34B01C01A70
:10048000524103098B4201D30B01C01A5241C308E8
:100490008B4201D3CB00C01A524183088B4201D357
:1004A0008B00C01A5241D9D243088B4201D34B0072
:1004B000C01A5241411A00D20146634652415B10B4
:1004C000104601D34042002B00D549427047634695
:1004D0005B1000D3404201B5002000F00BF802BDD4
:1004E0000029F8D003B5FFF715FF0EBC4243891A67
:0804F0001847C0467047C046E2
:00000001FF
