:1000000000100010090100008101000081010000C2
:1000100000000000000000000000000000000000E0
:10002000000000000000000000000000810100004E
:1000300000000000000000008101000081010000BC
:1000400081010000810100008101000081010000A8
:100050008101000081010000810100008101000098
:100060008101000081010000810100008101000088
:100070008101000081010000810100008101000078
:100080008101000081010000810100008101000068
:100090008101000081010000810100008101000058
:1000A0008101000081010000810100008101000048
:1000B00081010000810100008101000080B500AFD6
:1000C0000B4B00221A600B4B23221A600A4B0A4A80
:1000D000126880218A431A60084B01221A60084B7B
:1000E00003221A60074B01221A60BD4680BDC0463C
:1000F000408004400880044038820440448004402A
:10010000708004407480044080B584B000AF174B09
:10011000FB60174BBB60174A154BD31A7B6007E097
:10012000BB685A1CBA60FA68511CF96012781A70E0
:100130007B685A1E7A60002BF2D10F4BBB600F4ACE
:100140000D4BD31A7B6004E0BB685A1CBA600022D6
:100150001A707B685A1E7A60002BF5D1FFF7AEFF4C
:1001600000F0D0F8BD4604B080BDC0461C030000BE
:10017000000000100000001000000010000000103F
:1001800080B500AFFEE7C04680B582B000AF7860B2
:10019000C0467B685A1E7A60002BFAD1BD4602B079
:1001A00080BDC04680B500AF174B174A126817498B
:1001B0000A431A60164B164A126801210A431A6054
:1001C000144B144A126801210A431A60124B124A56
:1001D000126801210A431A60104B104A1268FF216D
:1001E00049000A431A600E4B00221A600D4B02228E
:1001F0001A600D4B0C4A126810218A431A600B4B8F
:100200000B4A1A60BD4680BD80800440402001003A
:100210007C400440804004409040044000800150F5
:10022000FC3F0150784004403882044000C0014047
:10023000020B000080B500AF084B084A126808495D
:100240000A431A60C046074B1B68002BFBDA054BBC
:100250001B689B09181CBD4680BDC04600C00140FC
:100260000200000104C0014080B582B000AF786098
:10027000224B224A126802210A431A601F4B1F4A6E
:10028000126804210A431A601C4B1C4A1268082198
:100290000A431A60194B194A126810210A431A605E
:1002A000164B164A126820210A431A60134B134A50
:1002B000126840210A431A60104B104A12688021CC
:1002C0000A431A600D4B0D4A1268802149000A4307
:1002D0001A600A4B094A126810218A431A60074BB8
:1002E000064A126840218A431A60044B034A126886
:1002F00003490A401A60BD4602B080BDFC3F015070
:10030000FFFEFFFF80B500AFFFF74CFFFFF792FF46
:0C031000031C181CFFF7A8FFF8E7C0460C
:00000001FF
