:1000000000100010090100008101000081010000C2
:1000100000000000000000000000000000000000E0
:10002000000000000000000000000000810100004E
:1000300000000000000000008101000081010000BC
:1000400081010000810100008101000081010000A8
:100050008101000081010000810100008101000098
:100060008101000081010000810100008101000088
:100070008101000081010000810100008101000078
:100080008101000081010000810100008101000068
:100090008101000081010000810100008101000058
:1000A0008101000081010000810100008101000048
:1000B00081010000810100008101000080B500AFD6
:1000C0000B4B00221A600B4B23221A600A4B0A4A80
:1000D000126880218A431A60084B01221A60084B7B
:1000E00003221A60074B01221A60BD4680BDC0463C
:1000F000408004400880044038820440448004402A
:10010000708004407480044080B584B000AF174B09
:10011000FB60174BBB60174A154BD31A7B6007E097
:10012000BB685A1CBA60FA68511CF96012781A70E0
:100130007B685A1E7A60002BF2D10F4BBB600F4ACE
:100140000D4BD31A7B6004E0BB685A1CBA600022D6
:100150001A707B685A1E7A60002BF5D1FFF7AEFF4C
:1001600000F092F8BD4604B080BDC046F81900000A
:10017000000000100000001000000010000000103F
:1001800080B500AFFEE7C04680B582B000AF7860B2
:10019000C0467B685A1E7A60002BFAD1BD4602B079
:1001A00080BDC04680B500AF174B174A126817498B
:1001B0000A431A60164B164A126801210A431A6054
:1001C000144B144A126801210A431A60124B124A56
:1001D000126801210A431A60104B104A1268FF216D
:1001E00049000A431A600E4B00221A600D4B02228E
:1001F0001A600D4B0C4A126810218A431A600B4B8F
:100200000B4A1A60BD4680BD80800440402001003A
:100210007C400440804004409040044000800150F5
:10022000FC3F0150784004403882044000C0014047
:10023000020B000080B500AF084B084A126808495D
:100240000A431A60C046074B1B68002BFBDA054BBC
:100250001B681B0A181CBD4680BDC04600C001407B
:100260000200000104C0014080B582B000AF021C52
:10027000FB1D1A70034BFA1D12781A60BD4602B0BE
:1002800080BDC046FC3F0150F0B583B000AFFFF722
:1002900089FFBB1D00221A70FB1D00221A70FFF798
:1002A000C9FF021CBB1D1A70BB1D1B78181C01F076
:1002B000D1F9031C0C1C181C211C1A4A1A4B00F003
:1002C0007FFB031C0C1C1D1C261CFB1D1B78181C13
:1002D00001F0C0F9031C0C1C181C211C134A144B00
:1002E00000F06EFB031C0C1C281C311C1A1C231C68
:1002F00000F03EF8031C0C1C1A1C231C7C1D101C57
:10030000191C00F017F8031C2370FB1D7A1D1278CE
:100310001A707B1D1B78181CFFF7A6FF1720FFF72C
:1003200033FFBCE7666666666666E63F34333333A2
:100330003333D33F38B500220C4B041C0D1C01F0A5
:10034000F9F9002804D1201C291C01F04DF938BD11
:10035000064B0022201C291C00F0CCFD01F044F9C2
:1003600080231B069C466044F1E7C0460000E04144
:10037000F0B5454657464E4694464C000A03C90F11
:10038000E0B488460E1C1903470FC500480A6146B1
:10039000490F01436046520A1743C0005A00640DDA
:1003A000520DDB0F8446984500D1A7E0A01A002823
:1003B00000DC01E1002A3DD163460B4300D0D4E0CC
:1003C0006B0700D188E00F232B40042B00D183E082
:1003D0002A1DAA42AD4180236D427F191B043B4078
:1003E0004646151C002B00D17CE0CC4B01349C42CE
:1003F00000D1FDE03A1CCA4BED081A4050076405D5
:1004000052020543120B640D002112030B0D1B0554
:100410006405120B1A436308C24CF60714401C43D0
:10042000640064083443281C211C1CBC9046994677
:10043000A246F0BDB94B9C42C2D080231B04194395
:10044000382800DDECE01F2800DD21E120220E1C11
:100450006346121A9640C340334366469640321CA8
:10046000561EB24113430A1CC240EB1A9D42B641CC
:100470001D1CBA1A7642971B3B0200D497E07A0201
:10048000560A002E00D1B6E0301C01F05DF9031CC5
:10049000083B1F2B00DDB7E09E40371C28262A1C96
:1004A000361AF240161C9D403E439C4200DDB2E0ED
:1004B0001C1B621C1F2A00DDD8E01F23291C1C1BEB
:1004C000331CA540A340D1406C1EA541D640194322
:1004D0000D43371C002473E780231B043B40464632
:1004E00000D082E78D4BED0878070543FA089C425F
:1004F00032D012036405120B640D85E7A31A002B9A
:1005000000DC94E0002A3CD0844A944200D157E7B2
:10051000802212041143382B00DC05E163461943A5
:10052000481E81410022C8B24019A8429B41051CC7
:10053000D2195B42D7183B0239D5784B01349C4223
:1005400000D14CE10120764A6B083A40284018431C
:10055000D5070543570833E72B1C134348D08023A6
:100560001B031A431203120B4EE70138002878D1FF
:100570006346EE1AB5429B417A1A5B42D71A351C84
:100580007AE7021C0A4300D11AE7013B002B00D096
:10059000F2E04019A8429B41CA195B42D718051CDA
:1005A000C9E7131C334300D118E1171C351C46461C
:1005B0006B0700D007E795E700287AD1621C520547
:1005C000520D012A00DCFBE06246AA1A9542B641B0
:1005D0009146781A7242861A320200D493E062463B
:1005E000551BAC458041CF1B40423E1A984648E718
:1005F0000022002508E7281C01F0A6F82030031C83
:10060000083B1F2B00DC47E7283885402E1C0025BF
:100610009C4200DC4CE7424AE41A1640371CCFE605
:10062000634619434B1E99410022CBB21DE7002BB4
:1006300000D0F2E0601C43055B0D012B00DCA4E060
:10064000364B984200D121E163465C19AC429B4194
:10065000CF195B42FA186408D50725435708041CD4
:10066000AEE62E4B9C4200D0EAE6A9E6211C331CE4
:100670001F39CB40191C202A00D182E03F231C1BCC
:10068000A64035436E1EB54100270D4300248EE77A
:10069000031C0E1C203BDE40202874D040231B1A74
:1006A00099400B1C62461343591E8B410022334371
:1006B000DBE6002C50D0194CA24200D1A8E08024E7
:1006C000240440422743382800DDD9E01F2800DDFC
:1006D00039E120243E1C241AA640B0462E1CA14617
:1006E000C640444626434C46A5406C1EA541C74023
:1006F00035436046451BCF1BAC45894149427F1AB3
:10070000141C9846B8E64B464D46334300D0B8E635
:100710000026002700240025E4E6C046FF0700006D
:10072000FFFF7FFFFFFF0F801F2B5BDC2022081CD9
:10073000D21A9040814660469246D8404A461043BD
:100740008146524660469040021C501E82414846F7
:1007500010430A1CDA40E7E63C1C2C4358D0C04347
:10076000002851D16046451BAC458041CF1B40421B
:100770003F1A141C98467FE68F4A944200D0CAE67E
:100780001EE600267DE700238CE73B1C2B43002C54
:1007900000D0BDE0002B00D1F5E063460B4300D153
:1007A0000EE663465B19AB428041CA1940421718F6
:1007B0003A0200D4FCE0814A1D1C17400134FFE5D9
:1007C0003A1C2A43002C51D1002A00D085E0624611
:1007D0000A4303D00F1C65469846F1E50026002722
:1007E00000257FE6181C0A1C2038C240202B00D1AF
:1007F000A7E04020C01A8140081C63461843411EF0
:100800008841104300228FE66B4CA24200D05AE789
:100810000F1C6546141C9846D2E5002C3AD1381CB2
:10082000284371D0DB43002B18D0634882426BD041
:10083000382B00DD9DE01F2B00DDA7E020203C1CB5
:10084000C01A8440A1462C1C8246DC404846044322
:1008500050468540681E8541DF4025436544654517
:100860009B417F185B42FF18141C64E6002A19D1D3
:1008700062460A4377D00F1C654698464E4C9FE56A
:100880003D436F1EBD410027EDB232E7041C002737
:10089000002527E64848824236D0802000045B428B
:1008A0000743C5E762460A4349D08024ED0878072C
:1008B000FA0824032843224209D0CE08264206D152
:1008C00062464F07381CD20810439846321CD200AB
:1008D000470F1743C500384C72E562460A4300D102
:1008E0006EE56246AE1AB5429241781A5242821AB9
:1008F000100200D455E66246551BAC458041CA1B28
:100900004042171A98465BE50F1C6546141C57E5D4
:10091000002B34D063460B4311D08024ED087807B8
:10092000FA08240328432242D1D0CB082342CED157
:1009300062464F07381CD20810431A1CC7E71E4CEA
:100940003EE5002059E7041C3E1C203CE640341CD8
:1009500020282BD04026301A87403D436F1EBD41D2
:1009600000272543C5E680270026FF03124C0025FB
:10097000B8E53D436F1EBD410027EDB26EE70F1C89
:1009800065460D4C1CE50F1C654619E51C1C381C02
:10099000203CE040041C202B0CD04020C31A9F4078
:1009A0003D436F1EBD410027254357E70027D4E78D
:1009B0001D1CFCE50027F3E7FF070000FFFF7FFF9A
:1009C000F0B55F4656464D464446F0B4051C061C3D
:1009D000080387B099464F00030BCC0F92469B4605
:1009E0007F0D019467D06C4B9F4236D080205B46D0
:1009F00040031843C0006B0F1843684B83469C4666
:100A000000239846EE00674400934B4649461D0379
:100A1000C90F5B0052462D0B5B0D894600D16EE07D
:100A20005D498B4264D080205C4940038C460021A4
:100A30000543ED00500F0543D20063444846FF18BC
:100A40007B1C9A46009B604002900B430F2B00D901
:100A5000ACE053489B00C3589F465B461D4300D003
:100A600082E00823009300239B4602330026984629
:100A7000CBE7029B01934346022B59D10124002569
:100A80000026019B1C40444B00212D030A0D12053A
:100A90002D0B1543434A1B0515401D436D00E4070C
:100AA0006D082543301C291C07B03CBC9046994674
:100AB000A246AB46F0BD2B434ED05B46002B00D187
:100AC00085E1584600F040FE021C2823291C9B1A91
:100AD000161C5846D940083EB0400B1CB540034395
:100AE0009B462E1C0023304F0093BF1A98468CE77C
:100AF000514629432ED10025002202219EE751466E
:100B0000294323D0002D00D154E1281C00F01CFE05
:100B1000031C28215046C91A1A1CC8405146083ADD
:100B2000914095400A1C05431F480021C31A85E7E0
:100B3000032B00D1C2E1012B00D06DE14446019BA3
:100B400000251C40E4B2002300269DE7002500227A
:100B5000012173E7032171E70423009300239B46DF
:100B600001330026984650E70C230093093B984632
:100B70004BE7802500242D030026074B84E74B46D6
:100B8000AB46161C0193884675E7029BAB46161CC4
:100B9000019388466FE7C046FF07000001FCFFFF96
:100BA000B8190000FFFF0F800DFCFFFF330C360467
:100BB000360C9C46331C140C1204120C53439846FA
:100BC000634653439946634663430193331C41464E
:100BD0006343090C4B445B18994505D980204002BA
:100BE0008146019949440191190C03914146090438
:100BF000090C1B045B1804932B0C9846331C2D0422
:100C0000290C4B43604600934346654658435E4378
:100C1000009B4D431B0C9946AE194E448446B54289
:100C200003D980235B029946CC44350C2B1C0398D6
:100C3000634484460593009B36041B041B0CF31885
:100C40009C446046039058460504060C280C8446D4
:100C50005043351C81466046654344434846000C7A
:100C60008346724314195C44A24203D98022520283
:100C700093465D44220CAD184A461204120C24041B
:100C80004046A41862464A43714346436046009674
:100C9000464670438046100C84468844E0444145F3
:100CA00005D9802149028C46009961440091019840
:100CB00003998446614499429B415B429946059859
:100CC000434684461204120C1B049B1863449C4642
:100CD000AB4683429B4140460A19CC44A24289411B
:100CE000E344CC45B6415C46000C8046494276421E
:100CF0005B426418334398448C428941AB459B4125
:100D000049425B4219430D1C009B4544EE18760294
:100D1000E50D2E43B346049B56021E43731E9E41AF
:100D20005B46D20D324366021643DB010AD501232E
:100D3000334076081E435B46DB071E435B465B0879
:100D40009B465746634BFB18002B5ADD720709D0B0
:100D50000F223240042A05D0321DB242B6417642FB
:100D6000B344161C5A46D20106D55A465A4B1A406D
:100D700080239346DB00FB18584A934234DD01245C
:100D8000029B00251C400026554B7DE680205B46DB
:100D90000003034208D0054206D105432D032D0B65
:100DA0004C46161C4E4B6FE65D4605432D032D0B3E
:100DB0004B4B69E6504600F0C7FC031C2033272B41
:100DC00000DCA6E65546083885400022ACE6281C23
:100DD00000F0BAFC021C2032272A00DC75E6083835
:100DE00085400026AB467DE65A46F6085207164374
:100DF0005A4601245502029A5B052D0B5B0D1440E7
:100E000042E6384DED1B382D0ADD0124029B0025FA
:100E10001C400026002337E6019B5746029391E7CA
:100E20001F2D25DC304B321C9C466744BE405B4680
:100E3000BB40371CEA407E1EB74113433B431E1C98
:100E40005B46EB401D1C730709D00F233340042B76
:100E500005D0331DB342B6417642AD191E1C2B029C
:100E600020D50124029B00251C40002601230BE60F
:100E70005A461E4BDB1BDA40131C202D1CD01C4A8B
:100E800094465A466744BA40171C3E43721E964128
:100E90001E4307230025334007D00F23002533408E
:100EA000042BD6D16B076D022D0B0124F6081E43CF
:100EB000029B1C400023E7E50027E6E780255B4610
:100EC00001242D031D43019B2D0323401C1C2D0BCE
:100ED000034BD9E5FF030000FFFFFFFEFE07000004
:100EE000FF07000002FCFFFF1E040000E2FBFFFF03
:100EF0003E040000F0B54D4644465F465646F0B409
:100F00000E1C111C3203520A470F1743C5001A0367
:100F10005800DB0F9946520A4B0F83B01A43CB009F
:100F20000193CF4B7400F60F640DB046400D98420C
:100F300000D1E8E00123494659400B1C9E4200D1F4
:100F4000B1E0261A002E00DC1CE1002842D1131C5F
:100F500001990B4300D0E6E06B0700D18EE00F2330
:100F60002B40042B00D189E02A1DAA42AD418023E9
:100F7000012641466D427F191B043B400E40151C63
:100F8000002B00D183E0B64B01349C4200D116E126
:100F90003A1CB44BED081A40500764055202054351
:100FA000120B640D002112030B0D1B056405120BBF
:100FB0001A436308AC4CF60714401C4364006408F1
:100FC0003443281C211C03B03CBC90469946A246E1
:100FD000AB46F0BDA24B9C42BED080231B041A43FB
:100FE000382E00DD03E11F2E00DD3FE12020831BB2
:100FF0009946131C49468B409C46019B6046F34032
:1010000003430198F2408840011C481E81410B4374
:10101000EB1A9D4280411D1CBA1A4042171A3B022E
:1010200000D4A8E07A02560A002E00D1CAE0301C93
:1010300000F08AFB031C083B1F2B00DDCBE02822BD
:10104000291C121AD1409E400A1C9D4032439C42EA
:1010500000DDC8E01C1B671C1F2F00DDEDE01F2317
:10106000291C1C1B131CA540A340F9406C1EA54164
:10107000FA4019430D43171C00246DE78023012615
:1010800042461B043B401640002B00D07BE7744BCC
:10109000ED0878070543FA089C423BD0120364052B
:1010A000120B640D7EE7231A9A46002B00DCA5E0A4
:1010B000002844D06A48844200D14DE780200004D3
:1010C00002435346382B00DC1CE1019B1A43511E9E
:1010D0008A41D1B200224919A94280410D1CD2197E
:1010E000404217183B0246D55D4B01349C4200D16B
:1010F00069E101205B4A6B083A4028401843D50754
:101100000543570828E7131C01990B4300D111E749
:101110004B4613E72B1C134351D080231B031A4368
:101120001203120B3EE7013E002E00D080E0691A48
:101130008D429B41BA1A5B42D71A0D1C6FE7101CF7
:10114000019B184300D107E701235B429C46E24420
:101150005346002B00D002E1019BD2195919A94234
:101160009B415B42D7180D1CBCE76346034300D18B
:1011700028E1071C65466B0700D0F0E601264346D0
:101180001E4084E7002E00D081E0601C4005400D29
:10119000012800DC07E10199681A84466545B641DB
:1011A000B81A7642861B300200D4A1E08C464D1B53
:1011B000AC458941D21B4942561A984634E7002271
:1011C0000025EFE6281C00F0BFFA2030031C083B86
:1011D0001F2B00DC33E7021C283A95402A1C00250F
:1011E0009C4200DC36E71F4FE41A1740B4E6019B2F
:1011F0001A43511E8A41D3B2002209E7002B00D0C6
:1012000001E1601C43055B0D012B00DCB0E0144BD9
:10121000984200D11EE1019BD2195919A9429B4164
:101220005B42D2184908D5070D435708041C93E6C2
:101230000B4B9C4200D0D3E68EE6211C131C1F39B9
:10124000CB40191C202F00D18EE03F231C1BA24055
:1012500015436A1E954100270D4300248BE7C046C5
:10126000FF070000FFFF7FFFFFFF0F80331C101CF4
:10127000203BD840202E79D040239B1B9A40131C42
:10128000019A1343591E8B4100220343C0E6002CF0
:1012900053D0C74CA04200D1B0E0802471428946AF
:1012A000240427434946382900DDCDE01F2900DD0D
:1012B00059E120243E1C611A8E408A46B0464946B8
:1012C0002E1CCE405146B4468D40644646464946A3
:1012D00026436C1EA541CF4035430199D71B8C4650
:1012E0004D1BAC4592415242BF1A041C984696E6EB
:1012F00063466546334300D096E600260027002467
:101300000025C4E61F2B61DC2020C31A9B46131C5A
:1013100059468B4051469946019BCB409C464B46D3
:10132000604603439C465B46019999406346481ECC
:10133000814119435346DA40CDE63C1C2C435DD035
:10134000F1438946002955D10199D21B8C464D1B8A
:10135000AC4589414942571A041C98465FE69448B7
:10136000844200D0ADE6F7E5002271E7002387E76D
:101370003B1C2B43002C00D0DAE0002B00D113E102
:10138000131C01990B4300D1E6E54919A9429B4181
:10139000D2195B42D7183B0200D421E1854B0D1CCA
:1013A0001F40041CD8E5381C2843002C40D10028DD
:1013B00000D083E0101C0199084303D0171C0D1CBA
:1013C0009846C9E500260027002560E65046131C14
:1013D0002038C340181C5346202B00D1C1E04023C5
:1013E00051465B1A9A40019911434A1E91410022CD
:1013F000014370E66E4CA04200D053E7171C019DDC
:10140000041C9846A8E5002C28D13C1C2C4300D194
:101410008AE0DB439A46002B00D082E0019BD21980
:101420009C4665449D42894149425718041C59E62F
:1014300000285BD1101C0199084300D1A4E0171CBF
:101440000D1C98465A4C87E53D436F1EBD41002751
:10145000EDB242E7041C0027002518E6544CA042D8
:1014600062D0534680245B429A4624042743534665
:10147000382B00DD8EE01F2B00DD9DE02024E31AD9
:101480009B463B1C59468B40514699462B1CCB40F2
:101490009C464B46644623439C465B469D406346C0
:1014A0006C1EA541CF401D43019BBF189C4665445F
:1014B0009D4292415242BF18041C13E6101C019930
:1014C000084300D148E5681A844685428041BE1A27
:1014D0004042301A060200D447E68C464D1BAC450C
:1014E0008941D21B4942571A984635E5101C01998B
:1014F000084334D080247807ED08FF0824032843EC
:10150000274208D0D608264205D1C90852070A4307
:10151000101C371C9846FF00420F1743C500244C8F
:101520001AE5234CA042A2D1171C019D041C13E50F
:10153000002B35D0131C01990B4310D08024780761
:10154000ED08FF08240328432742E4D0D3082342B0
:10155000E1D1C90852070A43101C1F1CDBE7144CD9
:10156000FAE400223FE74C463E1C203CE640494658
:10157000341C202932D04026761AB7403D436F1ED6
:10158000BD4100272543A8E680270026FF03084C1D
:1015900000257CE53D436F1EBD410027EDB283E78A
:1015A000171C019D024CD7E4171C019DD4E4C046D2
:1015B000FF070000FFFF7FFF54463B1C203CE34039
:1015C0001C1C5346202B0DD0402351465B1A9F40D4
:1015D0003D436F1EBD410027254365E70027CDE74A
:1015E0000D1CC8E50027F3E70B0330B5134C1A0BAD
:1015F0004B00051C5B0DC90F0020A34210DD1048F5
:1016000083420EDC80200F4C40030243E41A1F2C5F
:101610000ADD0D48C31ADA40131C484243405818EB
:1016200030BD0A4BC818FBE7281CE040084CA44614
:1016300063449A40131C0343EFE7C046FE030000D7
:101640001D0400003304000013040000FFFFFF7FAF
:10165000EDFBFFFF38B5041E16D0C50F00D0444285
:10166000201C00F071F8174B1B1A0A2821DC021C01
:10167000211C153291400A1C0B21081AC4405B053D
:101680002403240B5B0D03E000250023002400222B
:101690000021101C24030A0D1205240B14430A4ACE
:1016A0001B0514401C436400ED0764082C43211CF7
:1016B00038BD0B3884405B052403240B5B0D0022EE
:1016C000E6E7C0461E040000FFFF0F808446101CA2
:1016D00062468C46191C634600E0C0461FB500F008
:1016E00005F9002801D40021C8421FBD10B500F043
:1016F00049F84042013010BD10B500F0F7F800285D
:1017000001DB002010BD012010BDC04610B500F067
:10171000EDF8002801DD002010BD012010BDC046FD
:1017200010B500F073F8002801DC002010BD012086
:1017300010BDC04610B500F069F8002801DA00209D
:1017400010BD012010BDC0461C2101231B0498427E
:1017500001D3000C10391B0A984201D3000A083942
:101760001B09984201D30009043902A2105C4018F9
:101770007047C0460403020201010101000000009D
:1017800000000000F0B55F464D4644465646F0B4B2
:101790001F035C00DB0F99461B4B0E034D00C90F66
:1017A0008446360B6D0D8B4690463F0B640D9D4273
:1017B0000CD0154B9C4210D00123A54214D0181C0C
:1017C0003CBC90469946A246AB46F0BD311C012375
:1017D0000143F4D10C4B9C42EED13A430123002A41
:1017E000EDD10123A542EAD1BE42E8D1C445E6D1FC
:1017F000CB4506D0002DE2D13043031C581E834157
:10180000DDE70023DBE7C046FF070000F0B55746E1
:1018100045464E46E0B40F034E00C90F8A46324992
:101820001D035C0084463F0B760D90462D0B640D26
:10183000DB0F8E420FD08C4239D0002E10D13843AE
:10184000414241418946002C27D12A4325D100201D
:1018500000290ED108E0391C01432ED1B44226D014
:10186000002C0BD09A450DD0534659420123194301
:10187000081C1CBC90469946A246F0BD2A43F3D0F2
:101880009A45F1D1A642EFDC1ADA5046414248416E
:10189000012341421943081CEBE74A46002AE1D0E4
:1018A00058425841012241421143081CE1E7291CDA
:1018B000114302D1002EC2D0D4E702204042D8E723
:1018C000AF42D1D809D00020AF42D2D250464142D7
:1018D0004841012340421843CBE7C445C4D8002007
:1018E000C445F3D3C5E7C046FF070000F0B55F4627
:1018F0004D46444656468046F0B4061C0803000B8D
:1019000084462C484C001F035D00C90F640D8B46B4
:1019100091463F0B6D0DDB0F844212D0854225D0DE
:10192000002C14D161460E4370424641002D35D043
:10193000002E21D058425841012143420B43181C2C
:101940000EE06146022031430AD1A5420ED0002D9F
:1019500012D13A4310D15B46594201231943081C66
:101960003CBC90469946A246AB46F0BD391C0220CD
:101970001143F5D1002CD5D09B45ECD1AC42EADC2B
:1019800005DBBC45E7D80FD00020BC45E8D258465F
:1019900041424841414201200843E1E73A43C7D16F
:1019A0000020002EDCD1D6E7C845D4D80020C84599
:0819B000EDD3D5E7FF070000AD
:1019B800AC0B00008A0B00008A0B00007E0B0000B5
:1019C800720A0000720A0000720B00007E0B000011
:1019D800720A0000720B0000720A00007E0B000001
:1019E800760A0000760A0000760A00008C0D0000D6
:00000001FF
