:10000000002000100D01000099010000990100007E
:1000100000000000000000000000000000000000E0
:100020000000000000000000000000009901000036
:10003000000000000000000099010000A101000084
:100040009901000099010000990100009901000048
:100050009901000099010000990100009901000038
:100060009901000099010000990100009901000028
:100070009901000099010000990100009901000018
:100080009901000099010000990100009901000008
:1000900099010000990100009901000099010000F8
:1000A00099010000990100009901000099010000E8
:1000B00099010000990100009901000099010000D8
:1000C00080B500AF0B4B00221A600B4B23221A6045
:1000D0000A4B0A4A126880218A431A60084B01229F
:1000E0001A60084B03221A60074B01221A60BD46B2
:1000F00080BDC046408004400880044038820440EF
:1001000044800440708004407480044080B584B012
:1001100000AF1C4BFB601C4BBB601C4A1A4BD31A34
:100120007B6009E0FB681A78BB681A70BB68013312
:10013000BB60FB680133FB607B685A1E9341DBB2F6
:100140007A68013A7A60002BECD1114BBB60114AFE
:100150000F4BD31A7B6005E0BB6800221A70BB68A6
:100160000133BB607B685A1E9341DBB27A68013A67
:100170007A60002BF0D1FFF7A3FF00F083F9BD46B2
:1001800004B080BD780500000000001004000010DD
:10019000040000101400001080B500AFFEE7C04658
:1001A00080B500AF234B1B68022B13D002DC012B60
:1001B00005D030E0032B18D0042B21D02BE01E4BB0
:1001C0000E221A601C4B1C4A11681C4A12680A4312
:1001D0001A6020E0184B16221A60174B164A116855
:1001E000164A52680A431A6015E0134B1A221A6025
:1001F000114B114A1168114A92680A431A600AE0C9
:100200000D4B1C221A600C4B0B4A11680B4AD2682A
:100210000A431A60C046074B1B685A1C054B1A60FC
:10022000044B1B68042B02DD024B01221A60BD4601
:1002300080BDC04600000010FC3F005004000010CC
:1002400080B500AF074B074A126807210A431A60BE
:10025000054B064A1A60064B05221A6062B6BD4677
:1002600080BDC04610E000E014E000E07FBB00006D
:1002700018E000E080B582B000AF7860C0467B68CF
:100280005A1E9341DBB27A68013A7A60002BF6D1AC
:10029000BD4602B080BDC04680B582B000AF786078
:1002A0007B68181C0A2100F051F90B1C1A1C224B08
:1002B0005200D35A1AB2214B1A607B68181C0A21CB
:1002C00000F0EEF8031C7B607B68181C0A2100F02C
:1002D0003DF90B1C1A1C184B5200D35A1AB2174B7B
:1002E0005A607B68181C0A2100F0DAF8031C7B6056
:1002F0007B68181C0A2100F029F90B1C1A1C0E4BF4
:100300005200D35A1AB20D4B9A607B68181C0A210E
:1003100000F0C6F8031C7B607B68181C0A2100F003
:1003200015F90B1C1A1C044B5200D35A1AB2034B7A
:10033000DA60BD4602B080BD640500000400001014
:1003400080B500AF1E4B0E221A601D4B1C4A11686F
:100350001C4A12680A431A60FA239B00181CFFF714
:1003600089FF174B16221A60154B154A1168154A5A
:1003700052680A431A60FA239B00181CFFF77AFFA1
:100380000F4B1A221A600E4B0D4A11680D4A9268E3
:100390000A431A60FA239B00181CFFF76BFF084BF7
:1003A0001C221A60064B064A1168064AD2680A43A4
:1003B0001A60FA239B00181CFFF75CFFBD4680BD46
:1003C000FC3F00500400001080B500AF134B134AEF
:1003D000126813490A431A60124B134A1A60134BEE
:1003E0001E221A60124B124A1268802149000A43E9
:1003F0001A60104B01221A600F4B01221A600F4B3A
:1004000002221A600E4B0E4A126810218A431A60AB
:100410000C4B0D4A1A60BD4680BDC046808004402A
:100420004020010000800050FE0F0000FC3F005003
:100430003440044068400440744004407840044024
:100440003882044000C00140020B000080B500AFBC
:10045000094B094A126809490A431A60C046084B09
:100460001B68002BFBDA064B1B689B099B059B0D49
:10047000181CBD4680BDC04600C0014002000001FE
:1004800004C0014080B500AFFFF7DAFEFFF79CFF24
:10049000FFF7DCFF031C181CFFF7FEFEF8E7C04661
:1004A000002941D010B4041C4C40A4460123002272
:1004B000002900D54942002800D5404288422CD36B
:1004C00001242407A14204D2814202D209011B0166
:1004D000F8E7E400A14204D2814202D249005B0065
:1004E000F8E7884201D3401A1A434C08A04202D3CD
:1004F000001B5C0822438C08A04202D3001B9C080E
:100500002243CC08A04202D3001BDC08224300286F
:1005100003D01B0901D00909E3E7101C6446002C35
:1005200000D5404210BC7047002806D003DB0020F5
:10053000C043400801E08020000607B4024802A141
:100540004018029003BDC046190000000029EBD0FE
:1005500003B5FFF7A7FF0EBC4243891A1847C046F0
:040560007047C046DA
:10056400E007C000600BE009C00CA00DA00FE00084
:04057400E00FE00DA7
:04057800010000007E
:00000001FF
