:1000000000100010090100008101000081010000C2
:1000100000000000000000000000000000000000E0
:10002000000000000000000000000000810100004E
:1000300000000000000000008101000081010000BC
:1000400081010000810100008101000081010000A8
:100050008101000081010000810100008101000098
:100060008101000081010000810100008101000088
:100070008101000081010000810100008101000078
:100080008101000081010000810100008101000068
:100090008101000081010000810100008101000058
:1000A0008101000081010000810100008101000048
:1000B00081010000810100008101000080B500AFD6
:1000C0000B4B00221A600B4B23221A600A4B0A4A80
:1000D000126880218A431A60084B01221A60084B7B
:1000E00003221A60074B01221A60BD4680BDC0463C
:1000F000408004400880044038820440448004402A
:10010000708004407480044080B584B000AF174B09
:10011000FB60174BBB60174A154BD31A7B6007E097
:10012000BB685A1CBA60FA68511CF96012781A70E0
:100130007B685A1E7A60002BF2D10F4BBB600F4ACE
:100140000D4BD31A7B6004E0BB685A1CBA600022D6
:100150001A707B685A1E7A60002BF5D1FFF7AEFF4C
:1001600000F0A6F8BD4604B080BDC046C80200003D
:10017000000000100000001000000010000000103F
:1001800080B500AFFEE7C04680B582B000AF7860B2
:10019000C0467B685A1E7A60002BFAD1BD4602B079
:1001A00080BDC04680B500AF204B204A1268204970
:1001B0000A431A601F4B1F4A126801210A431A6042
:1001C0001D4B1D4A126801210A431A601B4B1B4A32
:1001D000126801210A431A60194B194A1268012159
:1001E0000A431A60174B174A126801210A431A6022
:1001F000154B154A126801210A431A60134B134A22
:100200001268FF2149000A431A60114B00221A604C
:10021000104B02221A60104B0F4A126810218A43B9
:100220001A600E4B0E4A1A60BD4680BD80800440A5
:10023000402001007C400440804004409040044045
:10024000A4400440A84004401440044000800150F1
:10025000FC3F0150784004403882044000C0014017
:10026000020B000080B500AF084B084A126808492D
:100270000A431A60C046074B1B68002BFBDA054B8C
:100280001B689B09181CBD4680BDC04600C00140CC
:100290000200000104C0014080B582B000AF786068
:1002A000024B7A681A60BD4602B080BDFC3F015027
:1002B00080B500AFFFF776FFFFF7D4FF031C181CD3
:0802C000FFF7EAFFF8E7C04672
:00000001FF
